:020000040800F2
:10000000F8FF012071C80408C5C8040881C60008AB
:1000100079C50008D1C5000829C600080000000005
:10002000000000000000000000000000C5C8040837
:10003000C5C8040800000000C5C8040885A700085A
:10004000C5C80408C5C80408C5C80408C5C804084C
:10005000C5C80408C5C80408C5C80408659B0008CD
:100060006B9B0008719B0008779B00087D9B000834
:10007000839B0008899B00088F9B0008959B0008C4
:100080009D9B0008A59B0008AD9B0008B59B000840
:10009000BD9B0008C59B0008CD9B00088BA50008F0
:1000A0009DA50008ADA50008BDA50008D1A50008C4
:1000B000E5A50008F9A500080DA60008C5C80408B4
:1000C000C5C80408C5C80408C5C80408C5C80408CC
:1000D000C5C80408C5C80408C5C80408399E000876
:1000E000499E0008599E0008699E0008978F0408E1
:1000F000ADA10008C5C80408C5C80408C5C80408DF
:10010000C5C80408C5C80408C5C804087B08040895
:1001100085080408910804089D080408A908040833
:10012000C5C80408C5C80408E59E0008F59E000877
:10013000059F0008159F0008857E0408C5C80408AF
:10014000C5C80408C5C80408C5C80408C5C804084B
:10015000C5C80408C5C80408B1A10008C5C804087A
:10016000C5C80408C5C80408C5C80408D59E000849
:10017000C5C80408C5C8040821A6000835A600089B
:0801800049A600085DA6000875
:10800000BFF35F8F074B5A6A22F480325A62D3F86B
:10801000942022F00102C3F89420BFF34F8FBFF3E6
:108020006F8F704700ED00E04A43C94330B5031D30
:1080300053E8003F0B401343051D45E80034002C76
:10804000F5D130BD0028ACBF00F16040064B4FEACF
:108050000111C9B2ABBF00F5614000F00F0080F81C
:1080600000131954704700BF14ED00E02DE9F041F2
:10807000046823696168D4E90576E5695A68F8619E
:108080004FF4E060D6E9008E7B68D060D86050691C
:10809000376A40F006005061586907F07F0740F0EA
:1080A00006005861F069D6E903C64CEA06064FF0AF
:1080B000000C80B2166457642E6A9064C2F84C803B
:1080C000C2F850E0D5E9008EC2F87CC0E86906F03D
:1080D0007F06D5E9037580B23D431D645E649864F4
:1080E000C3F84C80C3F850E0C3F87CC0586940F432
:1080F00080705861206A846848686FF30F002043DD
:108100004860506940F0010050615A6942F0010234
:108110005A618B6843F440438B600B6843F0010362
:108120000B600B6843F400730B60BDE8F081002026
:108130007047B1F5806F10B52FD01BD810292ED005
:1081400010D801292DD0042914BF0A230123194A6C
:108150001830D15C1A440823D27A44589340234300
:10816000435010BD40291ED0B1F5807F14BF0A23B3
:108170000423ECE7B1F5803F17D008D8B1F5805F54
:1081800015D0B1F5804F14BF0A230723DFE7B1F5FF
:10819000801F14BF0A230923D9E70523D7E7022349
:1081A000D5E70023D3E70323D1E70823CFE706234E
:1081B000CDE700BF28FC0408B1F5806FF0B5166864
:1081C00000F0858070D8102900F0838064D80129E0
:1081D00000F08180042914BF0A2301236F4C00F1B1
:1081E000180CE75C234493F80BE06D4B5CF80750E8
:1081F00003FA0EF325EA030306FA0EF52B434CF8B7
:108200000730B1F5806F166900F0888073D81029A7
:1082100000F0868067D8012900F08480042914BF0B
:108220000A23012323449F7D0223056A03FA07FCE6
:10823000BE4025EA0C053543B1F5806FD66905626D
:1082400000F093807ED8102907D073D8012900F060
:108250008E80042914BF0A2301231C444FF4807329
:1082600094F821404568A34025EA030306FA04F484
:108270002343B1F5807F436000F08D807FD80129D2
:1082800000F08380102900F083805368012B02BF27
:10829000036A19430162F0BD40291ED0B1F5807F09
:1082A00014BF0A23042399E7B1F5803F17D008D8FB
:1082B000B1F5805F15D0B1F5804F14BF0A230723B5
:1082C0008CE7B1F5801F14BF0A23092386E7052335
:1082D00084E7022382E7002380E703237EE7082365
:1082E0007CE706237AE740291ED0B1F5807F14BFD2
:1082F0000A23042396E7B1F5803F17D008D8B1F5DB
:10830000805F15D0B1F5804F14BF0A23072389E79A
:10831000B1F5801F14BF0A23092383E7052381E7F2
:1083200002237FE700237DE703237BE7082379E728
:10833000062377E740291CD0B1F5807F14BF0A23BC
:1083400004238AE7B1F5803F15D008D8B1F5805FE6
:1083500013D0B1F5804F14BF0A2307237DE7B1F591
:10836000801F14BF0A23092377E7052375E700233D
:1083700073E7032371E708236FE706236DE7B1F581
:10838000805F82D1D36803647FE7D36843637CE76F
:10839000D368836379E7D368C36376E728FC04086E
:1083A00073000300027F43698AB9203002685A6172
:1083B00042681A6482685A64C2689A640269DA641C
:1083C00042691A655A6942F001025A6170473830B1
:1083D000ECE770B5002A4FEA01440ABF25460D4676
:1083E0000C460346002200F1C00619682143C3E988
:1083F000001299680C33294343F8041CB342F4D1AA
:10840000D0F8C030C0F8C8202B43C0E9303270BD6E
:1084100000220A4930B508461446D0F85034934239
:1084200000DC30BDD1F8B43003F1C0055C600C3322
:10843000AB42FBD1013201F58A71EEE7A0190020B1
:1084400070477047024B03EB401393F87104704779
:10845000A019002007289FBFC422054B02FB003350
:10846000B3F854059ABFB0FA80F040090020704775
:10847000A0190020072806D8C422034B02FB0033B2
:10848000012283F856257047A019002070B51023EB
:1084900004468D0012F4004F0CBF07260E26520032
:1084A000013B266092B22C44F4D100EB81128C0186
:1084B0000351122042F8213070BD70B505460424E6
:1084C0008E00130B03EB430318331201013C2B60A6
:1084D00092B23544F5D100EB01130A018450062015
:1084E00043F8214070BD704770471822024B02FBD1
:1084F000003393F8850B7047A0190020054B93F8C3
:10850000342C824283BF182202FB0033D3F8880B3D
:1085100000207047A0190020072808D8044B03EB5F
:10852000401090F8703413B1012380F8563470472E
:10853000A019002007289FBF054B03EB4013B3F899
:108540005404B0FA80F094BF40090020704700BF87
:10855000A0190020054B93F8342C824286BF03EB10
:108560004013D3F860040020704700BFA01900201A
:10857000002330B518241D46074A92F8350C02F640
:108580007432984200DC30BD04FB03F1895801B11C
:108590000D600133F5E700BFA0190020E8E700EE09
:1085A000100AB8EE400A7047BCEEC00A10EE103A4E
:1085B00098B2704712B10B0E00F8013B0B0C037020
:1085C0000B0A437081707047012380F82930002026
:1085D000704708B50346C06B5A6A02445A629B6BE7
:1085E00003B19847002008BD0246036B1B681B6A55
:1085F0005B685B7813F0010008BF82F829007047C0
:1086000082634162704770470430704730B4074C52
:10861000D4F8380C04F63C4504EB8014D4F83C4CF8
:1086200005EB8010A469A44630BC6047A019002067
:10863000064BD3F8382C03F63C4003EB8213D3F8F7
:108640003C3C00EB8210DB69184700BFA0190020FA
:10865000043070470246036B1B681B6A5B689B789B
:1086600013F0010008BF82F829007047826341625D
:108670007047012380F8293000207047A9E7704730
:10868000043070470C4BD3F8BC2C0244C3F8BC2C0C
:1086900093F8C02C1044C0B283F8C00C93F8C02CDF
:1086A000120642BF93F8C02C82F0800283F8C02CDF
:1086B0000122024B1A707047A01900200000002010
:1086C00010B5134A134C92F8C03C2344C0E900345F
:1086D00092F8C13C92F8C00C834207D992F8C02CA2
:1086E00001209A1A0023C1E9002310BD92F8C00CA2
:1086F000834208D292F8C02C002B0CBF012002202C
:10870000C2F18002EFE7002213461046EBE700BFFC
:10871000A0190020403A0120837B042B0DD0074B89
:10872000D3F8C8260132C3F8C826426004228273F7
:10873000D3F8CC260132C3F8CC26704758970020D6
:1087400070B591FAA1F10326B1FA81F550E8004F16
:10875000002914BF2B4620234FEA430306FA03F3F4
:1087600024EA030414BF2B4620235B0002FA03F320
:10877000234340E80034002CE8D170BD70B591FA75
:10878000A1F10326B1FA81F500F1080353E8004F87
:10879000002914BF2B4620234FEA430306FA03F3B4
:1087A00024EA030414BF2B4620235B0002FA03F3E0
:1087B000234300F1080C4CE80034002CE4D170BDD8
:1087C00070B591FAA1F10326B1FA81F500F10C031D
:1087D00053E8004F002914BF2B4620234FEA4303E0
:1087E00006FA03F324EA030414BF2B4620235B009C
:1087F00002FA03F3234300F10C0C4CE80034002C84
:10880000E4D170BD70B591FAA1F10F26B1FA81F5EE
:1088100000F1200353E8004F002914BF2B4620230A
:108820004FEA830306FA03F324EA030414BF2B463A
:1088300020239B0002FA03F3234300F1200C4CE8B1
:108840000034002CE4D170BD70B5090A0F2691FAEE
:10885000A1F1B1FA81F500F1240353E8004F00299A
:1088600014BF2B4620234FEA830306FA03F324EABE
:10887000030414BF2B4620239B0002FA03F3234377
:1088800000F1240C4CE80034002CE4D170BDF8B5A4
:1088900001270E4B0E4ED3F88020DC6819690C437B
:1088A00014400440DC601C6104B9F8BDB4FA84F5DE
:1088B000C5F11F0506EB8503D3F8C40C07FA05F5CF
:1088C0000368984724EA0504EEE700BF002002444D
:1088D000A01900202DE9F84304460D464FF000484A
:1088E0000769C3681F400FB9BDE8F883B7FA87F37B
:1088F00028FA03F2D2431B3B22611740042BF2D823
:10890000DFE803F02B2621190300AE6A86B10023AD
:10891000013EB6B2AB62D5F82490B9F1000FE2D0B7
:108920004846D9F8003031469847D9F80490F4E722
:10893000E66AB6B2EFE768680028D4D0616B0368D6
:1089400089B29847CFE7A8680028CCD0A16BF6E79A
:10895000E8680028C7D0E16BF1E728690028C2D099
:10896000216CECE72C22054B02FB00335A68044BC8
:108970009A420CBF2120202040F0CCB900000020FA
:1089800000100240094B10B59842094C08D93BF041
:1089900093FD236AC3F302235B0748BF400010BD69
:1089A0003BF078FD236AC3F30213F5E7FFFF0040B5
:1089B000000C02444368C26D10B59A61EFF3118256
:1089C000502383F312884168046D0B6823EA040383
:1089D000846D23430B60D3B283F3118843695A69D2
:1089E00042F006025A61026A5A61426A1A64826A55
:1089F0005A64C26A9A64026BDA64426B1A658368CD
:108A0000B0F874201B68DA620023037710BDC169D7
:108A100038B54B690D8A5A69406842F006025A61BE
:108A20008A681468E26822EA0502E260026912F4C8
:108A3000806200D0FEE74FF48074C460224890F852
:108A4000040D68B1087F01280BD181F80521D1F808
:108A50000C210132C1F80C215A6942F006025A6118
:108A600038BDD1F808310133C1F80831EFF3118274
:108A7000502383F3128848680C6D036823EA0403CB
:108A80004C6D23430360D3B283F3118801254B69F6
:108A90008A6B08465A61CA6B1A640A6C5A644A6C3B
:108AA0009A648A6CDA64CA6C1A658B681C68B1F8BF
:108AB000BC30E3620D77FFF775FC81F80551E26881
:108AC0000B8A1343E360CBE7A019002000221F4B61
:108AD0002DE9F043104619464FF48A7617464FF0B9
:108AE000010CD3F8505495420BDC40B191F8053D90
:108AF000542B02BFB1F80A3D0133A1F80A3DBDE88D
:108B0000F08306FB021494F8058108F0FF0EB8F11B
:108B1000000F17D09868B3F81090D0F80080D8F8FC
:108B20000C0020EA0900C8F80C00D3F81480D8F82B
:108B3000140040F00600C8F81400704684F805716F
:108B400083F806C1013203F58A73CCE7A01900202F
:108B50002DE9F041264E044606EB401898F8703493
:108B60000F46450183B30EF0D6FF58B1182296F890
:108B7000783D02FB0363234493F8257D17B101235D
:108B800088F856341B48354400EB4410A5F854745B
:108B90000EF04EFED5F86C3496F8044D0122D5F84F
:108BA0005814D3F8B4308CB18A4003F1C0040504E2
:108BB00058BF596803F10C035CBF114343F8081C0C
:108BC0004000A34280B2F2D1BDE8F08110318A406A
:108BD00003F1C004010458BF596803F10C035CBFE2
:108BE000114343F8081C4000A34280B2F2D1EBE7E6
:108BF000A0190020F41D0020F8B5C4242B4D064612
:108C000004FB005494F863350F466BB30EF083FFFA
:108C100058B1182295F8783D02FB0353334493F87A
:108C2000257D17B1012384F85635C42303FB065470
:108C30001F48A4F8547506FB03000EF0F9FD95F8E3
:108C4000803D0246D5F87C6D7BB1D4F85C35D4F814
:108C500010165B79086903F0FC0318440421B0473F
:108C6000D4F8103600019881F8BD0121D4F814061B
:108C7000B047D4F81026B4F86015938A00B20B43BD
:108C80009382D4F80C36D4F81426596C890554BF55
:108C9000DA641A659A6C6FF30F0242EA80029A64F2
:108CA0005A6942F001025A61DEE700BFA0190020B4
:108CB000F41E0020A0E710B5044645F087FE81B2FF
:108CC0002046BDE8104043E710B5044645F07EFE5F
:108CD00081B22046BDE810408EE7182238B502FB6D
:108CE00000F5094C04F674332B4493ED027AD3ED6E
:108CF000037AE7EE007AB0EE670A45F067FE2C448F
:108D0000D4F8743B186038BDA01900202DE9F0415B
:108D1000294C94F8812D94F8783D9A4237D100205F
:108D200094F8825D254A94F8804D254E254FDFF852
:108D300098C085422FDD13687CB39168D2F810E0AB
:108D4000D1F8448018F4007F0CBFC1F84CE0C1F8A2
:108D500050E0D1F84880B2F80CE008EA06084EEA84
:108D6000080EC1F848E0D1F814E04EF0010EC1F849
:108D700014E0D3F8DC13394041EA0C01C3F8DC13EA
:108D8000D96841F48071D96001301832D1E742F0DE
:108D90009DFA0028C3D1BDE8F081196821F0800157
:108DA00019609188D9625C62D3F80CE0918A41EA3B
:108DB0000E01D9609482E7E7A01900202427002043
:108DC0000000FFFFE0E0F0FF0D030100F8B583684D
:108DD00005464FF47C5100F1840200F13806186812
:108DE0000023D5F8B840636123646364A364E3643B
:108DF0002365E367E160696F85F87830B1F5806FCE
:108E000046D032D8102945D027D8012903D00429CB
:108E100014BF0A2301232349DFF88CE0CF5C1EF83E
:108E200003E0082300F1180C5CF8071003FA0EF3B6
:108E300021EA03034CF80730696FFFF7BDF9696F4A
:108E4000FFF777F9002331462B64204642F040FDBE
:108E5000636943F480736361F8BD40291CD0B1F5A8
:108E6000807F14BF0A230423D5E7B1F5803F15D0D6
:108E700008D8B1F5805F13D0B1F5804F14BF0A2335
:108E80000723C8E7B1F5801F14BF0A230923C2E7EF
:108E90000523C0E70223BEE70323BCE70823BAE7A4
:108EA0000623B8E728FC040833FC040870B505461F
:108EB0000626084C013E00D170BD94F9000014F064
:108EC00025FA031E04DB6178EA185171A278EA548E
:108ED0000434EFE754FC040838B590F83430044605
:108EE000012B05D1026B1268117B09B1126ABAB964
:108EF00094F82920B2B1012B10D10B4D02232A4640
:108F0000206B05F1200136F0AFF86B78D84303F001
:108F1000010284F8292000F0010038BD0023F5E7A4
:108F20000020FAE70120F8E7A033012010B504463D
:108F30002046FFF7D1FF0028FAD0012010BDF0B580
:108F40001F4D95B005F14003009305F160030193B7
:108F5000022302931B4B0446049305F18003012076
:108F6000059300230E46184ACDE90630099205F113
:108F7000A002CDE90A23CDE90E33CDE9103394F8F0
:108F800028701393236B3A1D8DF80C008DF8200088
:108F90008DF834008DF8480018680C9240F0F4FA0F
:108FA0003A46314605F1A100FFF704FB6946206B04
:108FB00036F02EF8236B186840F0E6FA15B0F0BDD5
:108FC000A0330120E9850008C985000810B50446D2
:108FD00094B050226846064946F098FB6946206BDB
:108FE00036F016F8236B186840F0CEFA14B010BDB6
:108FF00068FC04082DE9F84305461F46036B8946C3
:109000001868904640F0C0FA95F82820234C131DAC
:109010002348696AC4F84432FFF7CCFA0020D9F833
:109020000030D8F80060012FC4F85032C4F85862FC
:10903000EE63C4F868021AD11A4B84F85C72C4E972
:109040009830C4F86C02184B95F82920A3F114014C
:10905000002A08BF1946286B35F0DAFFAB6B1BB945
:109060002B6B186840F090FAE86BBDE8F883022F8C
:10907000FBD1C4F86002D9F8043084F85C02C4F86B
:109080006432D8F80430C4F86C321E440123EE6315
:1090900084F87032034BC4F87432D4E70000002027
:1090A00061340120D38500082802002013B5CDE9E2
:1090B0000032049B6A4683634162012301A9FFF7E2
:1090C00099FF02B010BD10B502798CB0012A8DF85D
:1090D000071016D10DF1070302930023046802A9BB
:1090E0002046CDE90332CDE90633CDE908338DF8CA
:1090F00014208DF828200B9335F08AFF206840F06B
:1091000043FA0CB010BD30B5154B047993F8443ECA
:109110008DB0012B0CBF0023C2F30743012C1DD1DE
:109120008DF8053052BA01ABADF806200293042247
:10913000002305688DF80410284602A9CDE9033202
:10914000CDE90633CDE908338DF814408DF8284079
:109150000B9335F05DFF286840F016FA0DB030BD76
:10916000A01900202DE9F8430546414C076B94F8FF
:10917000453E404E386886F8E0308946904640F0DB
:1091800003FA94F8463EB5F806E0002B58D0D4F820
:10919000483E3949B3FBFEF20EFB12331A0A86F839
:1091A000012186F80231D9F80030DFF8E0C00A4624
:1091B000CCF82C33D8F80030CCF834330023CCF87A
:1091C0003C339368002B4BD12C4B1760536001222A
:1091D000D4F8480E84F8462ED8F800200244B2FB9A
:1091E000FEF00EFB1020C4F8482E00283CD1D4F825
:1091F0004C0EB0FBFEF0CCF854034FEA104C40BAD2
:1092000086F841C1A6F84201986858BB1C4E1F6001
:109210005E6084F8460EC4F84C2E95F8293003B9E8
:109220001431D8F800303846EB6335F0F1FEAB6B03
:109230001BB92B6B186840F0A7F9E86BBDE8F88301
:109240006B6A1049B3FBFEF2C4F8483EC4F84C3ECA
:109250000EFB12331A0A86F8212186F82231A2E782
:109260001432AEE71433CFE7074BCCF83C33D4E7E6
:10927000A0190020A03301208C0200202C03002024
:1092800058030020DC0200207D860008000000203A
:1092900038B51C4613B1BDE8384063E7836B204600
:1092A0009847204638BD13B5CDE90032049B6A4685
:1092B0008363416201A9FFF755FF02B010BD10B5ED
:1092C00090F834300446012B0FD1006B03681A7BF1
:1092D0000AB11B6A5BB940F05BF900F00103C043BF
:1092E00084F8293000F0010010BD0020F5E70020CF
:1092F000FAE738B50446074D2046FFF7E0FF10B106
:109300000023E36205E0D5F8503EE26A9B1A002B89
:10931000F2DB38BDA019002010B50446FF21303023
:10932000FFF7D1FE114B2046D3F8503E0233E362E3
:10933000FFF7DFFF94F83430012B15D10022A02174
:10934000206B42F08BFA94F83430012B0CD194F856
:109350002020206B920042F01002B021BDE81040A6
:1093600002F0FC0242F07ABA10BD00BFA019002042
:1093700070B5044604F130060D46FFF7BAFF06212A
:109380003046FFF7A0FE0123E28884F82930B5FBC0
:10939000F2F2D8213046FFF7B6FE034BD3F8503E29
:1093A0000F33E36270BD00BFA019002038B504463A
:1093B0000025A388AB4200D838BD218AE388204627
:1093C00059436943FFF7D4FF0135F2E770B50E4DFD
:1093D000044695F8463EB3B1C388D5F84C6EB6FB4B
:1093E000F3F60A4BC3F85463FFF783FF32461021AC
:1093F00004F13000FFF787FED5F8503E0233E362F8
:10940000002385F8463E70BDA01900200000002012
:109410002DE9F04F4A4FC68897F846BEDFF828A1DD
:1094200099B01D46044689469046B1FBF6F6FFF713
:10943000CDFFDAF85433BBF1000F01D1B3421CD099
:109440002046FFF756FF18B9002019B0BDE8F08F8D
:109450004FF0FF3304F1300032461321CAF8543381
:10946000FFF751FED7F8503E20460233E362FFF784
:1094700040FF0028E8D0CAF85463E68894F8342006
:10948000B9FBF6F106FB1191761AAE4234BFB5B2C4
:10949000ADB2012A39D197F8453E03208DF8083046
:1094A000C0238DF8093000234FEA112C8DF80E10DF
:1094B00002A9049101A9CDE905102249266B089162
:1094C00003A9CDE9091304218DF80C000B91304656
:1094D00004A9CDE90D33CDE90F85CDE91233CDE9EE
:1094E00014338DF80A308DF80DC08DF80F308DF8DB
:1094F0001C208DF830308DF844208DF858201793BB
:1095000035F086FD306840F03FF8D7F8503E2046F1
:109510000233E362FFF7EDFE002895D094F8343073
:10952000012B0AD1206B40F033F8C0F30110023850
:10953000012802D82046FFF7EFFE284685E700BF46
:10954000A0190020558600080000002038B500232F
:10955000124CA07BE0B125688D4219D1104C03F567
:10956000B1751AB904EB0514A27138BD04F11801E4
:1095700001EB43239A4209D1831E5842584142F0DD
:1095800021F8012304EB0514A371EEE70020F6E7B0
:1095900001330B2B04F11004DBD1E6E7709D0020B2
:1095A0005887002038B50023164880F8D03600F5DB
:1095B000C36425688D421ED1A57B032D1BD1124C9F
:1095C00003F5B1754AB9042304EB0514A371D0F86F
:1095D000CC360133C0F8CC3638BD04F1180000EBAE
:1095E0004320131A5842584141F0ECFF012304EB89
:1095F0000514A371F0E701330B2B04F11004D8D14B
:10960000EAE700BF5897002058870020BFF34F8F2C
:109610000549064BCA6802F4E0621343CB60BFF30E
:109620004F8F00BFFDE700BF00ED00E00400FA052A
:109630000028ACBF00F16040064B4FEA0111C9B2EF
:10964000ABBF00F5614000F00F0080F80013195423
:10965000704700BF14ED00E008B572B6FFF7D6FF03
:109660000D4B0E49D3F8F43013F0805F0C4B03D050
:10967000D3F8002D8A420ED00022C3F8042DC3F87F
:10968000082DC3F80C2DC3F8102DC3F8142DC3F802
:10969000182DC3F8001D7047000C02443166654266
:1096A0000070004430B1036882881B691A4214BFFD
:1096B00001200020704730B1838881F001010268E9
:1096C00009018B409361704710B1036882889A61E9
:1096D000704710B1036882889A6270470268838875
:1096E00051690B4218BF1B0493617047024BD86845
:1096F000C0F30220704700BF00ED00E0002807DB48
:1097000001234109034A00F01F00834042F8213041
:10971000704700BF00E100E000F00703C3F107005D
:10972000042810B503F1040428BF0420062C4FF0D0
:10973000FF3494BF0023033B04FA00F021EA000148
:109740009C40994022EA040241EA020010BDB3485D
:10975000B34A2DE9F0410021121A45F0EBFEB14861
:10976000B14AB249121A45F0D1FFB1494B6A43F4EC
:10977000E0234B62FEF744FC00231A46C1F8983000
:109780000133102BC1F8A020F8D1BFF35F8F052360
:10979000C1F894304B6A43F480334B62BFF34F8F70
:1097A000BFF36F8FFEF72CFCD1F8C030A14C23F033
:1097B000FF0343F04403C1F8C030D4F8A803D4F841
:1097C000AC3320F01F00002B61D01F3323F01F03A8
:1097D00003B1013B94F8B21394F8B32301F00101F3
:1097E0000143002094F8B153D20002F018020A435A
:1097F00005F0030142EA410223F01F038C4943F0C4
:109800000103C1F89800C1F89C20C1F8A030BFF353
:109810005F8F0523C1F894304B6A43F480334B6269
:10982000BFF34F8FBFF36F8F834B1A6822F48022F0
:109830001A601A6822F480121A601A6842F48032A0
:109840001A607E4A19688E0327D518681A68196845
:1098500002F4005200F48050024301F480410A43B4
:109860001DD15A6822F0415222F44C1242F080522B
:1098700042F480125A601A6842F480721A606F4B88
:109880006D4A1168CD0422D4013BFAD107E00123CF
:1098900094F8B023934003449AE7013AD2D1684A3E
:1098A000136823F00F0343F004031360624B1A683C
:1098B000D00600F1CF801A6842F001021A605F4AB8
:1098C0001968C90600F1C680013AF9D11FE05C4968
:1098D0000B6823F00F0343F004030B60D36957496F
:1098E00043F00303D361544AD36903F01803182BE0
:1098F00040F08F8052490B6823F0300343F020037F
:109900000B60136A23F4EE4323F07F0313624A4B88
:109910001A68520606D41A6842F004021A601A68DD
:109920005706FCD54FF0E027DFF80C813AF060FDD8
:10993000D8F820303B693E4943F004033B61CA68D4
:10994000404B22F4E0621204120C1343CB603AF055
:1099500091FD94F8BC33D4F8C053C4F8B8034BB3AA
:109960004FF47A763869B6FBF3F610F0040000F095
:109970008F803AF07FFDB0FBF6F00138B0F1807FC8
:1099800018D24FF0E023002258619A61196941F022
:1099900001011961196941F002011961FFF7A6FE81
:1099A000E9B2FFF7B9FE224B0001C0B283F82300F1
:1099B000C4F8C053224C244D236D13F4800F40F0A3
:1099C00092803FF001FAE369DE0705D51F4BE360A3
:1099D00003F14433E360E369226A1D4B1340002B1B
:1099E00076D1636D43F480036365E36943F002035A
:1099F000E361D5F8541E124B1A6AD2075FD41A6A73
:109A000012F41E0F00F09A801A6B42F41E021A63C1
:109A10005EE001397FF468AF41E700BF403A0120C2
:109A2000A03B0120A0330120403A01207C230608FE
:109A300000ED00E000000020000C0244400D030097
:109A4000002002400003FA05A01900203B2A190853
:109A50000B009E003C4B3D49DA6922F0030242F0C4
:109A60000102DA61DA6902F01802082A0DD13849D8
:109A70000A6822F0300242F020020A601A6A22F4D8
:109A8000EE4222F07F021A6241E70139EAD13EE755
:109A9000D8F8DC3003F04043B3F1804F09D0B3F184
:109AA000004F09D0002B7FF466AF3AF0E3FCC0080A
:109AB00061E74FF4FA405EE74FF400405BE7D5F80A
:109AC000542E521AB2F57A7F96D91A6AD00793D5D6
:109AD0001F4BDA6942F00102DA61DA699A6A42F0F0
:109AE00001029A629B6A1B4A1B4C136843F00103F4
:109AF0001360E36823F4E0631B041B0C43F00523AD
:109B000043F47A03E360104BD3F8F430C5F8583EC1
:109B10003AF0B0FC114B0022B0FBF3F0C5F85C0E3C
:109B2000D4F8FC3043F08073C4F8FC300C4B5A601E
:109B30001A6842F001021A60BDE8F0811A6B42F423
:109B400080321A63FFF762FD000C0244400D0300EF
:109B5000002002400004034000ED00E040420F00FE
:109B6000001000E00120FEF792BE0220FEF78FBE3B
:109B70000420FEF78CBE0820FEF789BE1020FEF7F9
:109B800086BE2020FEF783BE4020FEF780BE8020E8
:109B9000FEF77DBE4FF48070FEF779BE4FF4007083
:109BA000FEF775BE4FF48060FEF771BE4FF40060A3
:109BB000FEF76DBE4FF48050FEF769BE4FF40050C3
:109BC000FEF765BE4FF48040FEF761BE4FF40040E3
:109BD000FEF75DBE002807DB01234109034A00F0C0
:109BE0001F00834042F82130704700BF00E100E0D1
:109BF000264A830AB2EB902F1ED3B3F5801F03D2FF
:109C0000FE20704705207047A3F58013062BF7D878
:109C100001A252F823F000BF899C0008019C0008B3
:109C2000019C0008359C00086D9C0008719C000890
:109C3000759C000802207047A3F580134B3B072B4F
:109C4000DED8072BDCD801A252F823F0859C00084F
:109C5000019C0008059C0008019C0008019C00086C
:109C6000799C00087D9C0008819C000803207047B7
:109C7000042070470620704707207047082070476F
:109C8000092070470020704701207047060010002F
:109C90002DE9F843164B93F8C41351B950274FF0F0
:109CA0002C088946134CA4F6743696F8353C994234
:109CB00001DBBDE8F883237CA3B165682846FFF784
:109CC00097FFEFF3118387F3128808FB00606A6A3D
:109CD000DBB20132C0F8882E6A6942F001026A6183
:109CE00083F3118854F8183B0131C3F80090DCE786
:109CF0000000002014250020012210B5114644B2B6
:109D0000FFF7F4FCFFF708FD01462046FEF79AF93D
:109D10002046BDE810405DE708B5FFF769FF092858
:109D20009DBF00B2034B00EB4000002098BF03EB47
:109D3000C00008BDE429002070B50468164620461E
:109D40000D46FEF71FFEB0FBF6F0013D0138ADB247
:109D5000A062E5622368204623F070032360236835
:109D600023F44073236000232363236843F08003BC
:109D70002360636943F001036361FFF739FF09283A
:109D80009FBF1822024B02FB003343F8B44C70BD56
:109D9000982A002070B5EFF31182502383F31288C4
:109DA0000368C3B900F1240300F1100400F1200698
:109DB00054F8045F0DB11D602B1DA642F8D100249C
:109DC0001C60D3B283F31188436A3BB1CB6843F084
:109DD0000103CB6070BD43620433E5E7CB6823F039
:109DE0000103F6E7F8B50F46016805460846164632
:109DF000FFF7FEFE092804461AD80B2363436D794A
:109E00000C4803EB950300EB83020223C2F8647E47
:109E1000C2F8746EAD08CA68AB401343CB602C2304
:109E200014FB03F400F566602044BDE8F840B1E798
:109E3000F8BD00BFA019002001490248FEF74ABD45
:109E400000280020002C01404FF080400149FEF71F
:109E500041BD00BF2C28002001490248FEF73ABD51
:109E600058280020000C00402DE9F041174E184FF3
:109E70003569F3681D404FF000420DB9BDE8F0812F
:109E8000B5FA85F322FA03F3DB43012D336103EACC
:109E9000050318D1D7F80C4F94B10023013CA4B2AC
:109EA000C7F80C3F0025D7F8088FB8F1000FE2D0B3
:109EB0004046D8F8003021469847D8F80480F4E7A7
:109EC000F46AA4B2EEE71D46D7E700BF00100040D9
:109ED000A019002001490248FEF7FCBCDC28002044
:109EE0000034014001490248FEF7F4BC0829002073
:109EF0000018004001490248FEF7ECBC342900205C
:109F00000040014001490248FEF7E4BC60290020FE
:109F10000044014001490248FEF7DCBC8C290020C6
:109F20000048014000280CDB01220649430900F0EB
:109F30001F008240203341F82320BFF34F8FBFF32F
:109F40006F8F704700E100E08069C0F34000704708
:109F5000034607B5026822F002020260026822F09E
:109F600004020260026822F040020260026822F0ED
:109F700020020260026822F010020260026822F0F1
:109F8000800202608269900648BFDA69184644BFC1
:109F900042F02002DA61FFF7D7FF08B100229A628F
:109FA0009A690020D2075CBF01229A6158601A6842
:109FB00022F001021A600190019A3F2A11DD1A680D
:109FC00042F001021A6001230B700023074A4B7014
:109FD000B2F8543001339BB2A2F8543003B05DF8AC
:109FE00004FB00BF019A01320192E5E7982A0020A4
:109FF0008069C0F30010704738B52C236A4C0246C4
:10A0000003FB00439B6D5B681968C80610D51846B2
:10A01000FFF7EEFF60B1D969184641F01001D96130
:10A02000514201F02C0121447031BDE838408FE7E6
:10A030001968890727D51846FFF786FF18B32C2122
:10A0400001FB024191F8750070B191F8740058B1AC
:10A05000886F451C8D670078C0B2986291F87400D3
:10A060000138C0B281F874002C2101FB024292F841
:10A07000741019B192F87520002A7CD11A6822F068
:10A0800002021A6077E019684D0722D599694807DE
:10A090001FD52C2101FB024191F8760070B191F897
:10A0A000740058B1CD6F681CC867586AC0B2287078
:10A0B00091F874000138C0B281F874002C2101FBC2
:10A0C000024292F87420002A55D11A6822F0040244
:10A0D000D7E71968490626D599694D0623D52C215D
:10A0E00001FB024292F87610002944D092F87200E7
:10A0F00092F874105A6822F07F7222F45F3222F4D0
:10A100007F7222F00302024342EA014242F002421D
:10A1100042F410525A601A6822F002021A601A6859
:10A1200042F00402ADE71968880625D599698906C9
:10A1300022D5D96941F02001D961196821F00201C5
:10A140001960196821F004011960196821F04001B3
:10A150001960196821F020011960196821F01001B7
:10A160001960196821F0800119602C2303FB024457
:10A17000002384F8713038BD1A6822F002021A6098
:10A180001A6822F004021A601A6822F040021A606B
:10A190001A6822F020021A601A6822F010021A606F
:10A1A0001A6822F080026CE7982A0020002023E73A
:10A1B000012021E72C22504308B5044B19180B4607
:10A1C0007031D86DFFF7C4FE002008BD982A00202A
:10A1D0000379024613F0020004D092F872000038AE
:10A1E00018BF012070472DE9F041046E0546FFF7C6
:10A1F000EFFF2368424223F4F8732360A368064606
:10A2000023F00103A360236802F0080223F0010396
:10A210002360002323606360A360E36029796B7986
:10A22000206801F0010142EA8102990220F0102029
:10A2300001F480510143D5F808802160206819029B
:10A2400001F4806120F4C06001438C4F216061689B
:10A25000A4EB070C1B03DCF1000703F4005321F40B
:10A26000405147EB0C070B43BF00636054E8003FCD
:10A2700023F00C03134344E800310029F6D1A3680E
:10A2800023F44073A360236823F400432360E36A4C
:10A2900023F00F033B43E362794B9C4240F2D580AD
:10A2A0003AF00AF9B8F1000F0CD0764B03EB8703B4
:10A2B000D3F89030B0FBF3F303EB5803B3FBF8F3A0
:10A2C0009BB2E360E368002B00F0BD8069792F79D1
:10A2D000C8072B6E07F001020AD51AB1586840F47E
:10A2E00080305860B80742BF586840F4003058606A
:10A2F00095F8740018B1586840F400405860A3689D
:10A3000043F48053A360236823F000532360636801
:10A3100023F490436360A36823F02A03A3600B0730
:10A3200042BFA36843F00803A360236843F001031E
:10A330002360002A64D0EB6B002B00F089800022A0
:10A340006F6CE868D5F814C05A611A645A649A644C
:10A35000DA641A65DA674FF47C52DA604FF400224F
:10A360001A64494A04F12401934207F07F0780B23E
:10A3700002F101025F649864D964444988BF1146C0
:10A38000A3F15002A2EB01028CBF01210021182091
:10A39000C90001EBD21141433D4AC3F850C05018E7
:10A3A00002F584720A444FF6FC711F6C1140C0F82C
:10A3B00008715F6C41F07841C0F80C719F6C6FF3CD
:10A3C0000F02C0F81071DF6CC0F814711F6DC0F877
:10A3D0001C11C0F818711A60D9675A6942F001025D
:10A3E0005A6104F1080252E8002F42F0400204F1E1
:10A3F000080040E800210029F3D19B6C9BB26B65FB
:10A400000EB32B6C002B34D0A96C00224FF47C557A
:10A410005A611A645A649A64DA641A65DA67DD600C
:10A420004FF4002504F1280001F07F011D645964F8
:10A430009A64D8641A655A6942F480725A61236832
:10A4400043F040032360BDE8F0813AF023F829E7A8
:10A45000236843F480732360A36843F00103A3607F
:10A46000236843F020032360236843F01003236034
:10A47000C6E7236843F080032360E0E7002400443C
:10A48000FFFF004028FC0408FF0F024000000240CC
:10A49000982A0020F8B50146056EEFF31184502389
:10A4A00083F31288FFF794FE30B9012381F86430FA
:10A4B000E4B284F31188F8BD0A6C506910F0010011
:10A4C000F6D14E6A8B6A9E42EFD08E6A4F6A8B6AD3
:10A4D0009F4227D94B6A886A1B1A486A9BB28862D6
:10A4E000002081F8640040202862506C8969800552
:10A4F000314454BFD1641165916C6FF30F010B436C
:10A500009364536943F00103536105F1080353E871
:10A51000003F43F0800305F1080141E80032002AC2
:10A52000F3D1C5E78F6A0B69DB1B9BB2D7E7034604
:10A530004FF480725B68C069DA60ABE711F01F010D
:10A5400030B503D04B1E0F2B28BF0E210725094B1A
:10A55000143003EB8103D3F8D010CC0D04F00404C5
:10A560000359C1F304518D4023EA05038A401A437D
:10A57000025130BD28FC0408836823F0004323F017
:10A580003F0343F0040383607047034843690BB102
:10A5900004301847704700BF000000200248036CD9
:10A5A0000BB1303018477047000000200248C36EDE
:10A5B0000BB15C3018477047000000200348D0F80A
:10A5C00098300BB188301847704700BF000000205A
:10A5D0000348D0F8C4300BB1B4301847704700BFFF
:10A5E000000000200348D0F8F0300BB1E0301847ED
:10A5F000704700BF000000200348D0F81C3113B1A1
:10A6000000F5867018477047000000200348D0F816
:10A61000483113B100F59C701847704700000020C6
:10A620000348D0F8743113B100F5B2701847704781
:10A63000000000200348D0F8A03113B100F5C87025
:10A6400018477047000000200348D0F8CC3113B100
:10A6500000F5DE7018477047000000200348D0F86E
:10A66000F83113B100F5F47018477047000000206E
:10A670000138FEF777B92DE9F041461E304688468D
:10A6800015461F46FEF76EF92C230C48A90903FB5B
:10A690000600C5F3011290F91C40C0F8148007624F
:10A6A000FFF724F8FFF738F801462046FEF7C0FF11
:10A6B0002046BDE8F041FFF721B800BF00000020B0
:10A6C000D3B20F2B30B503D81C230E4C013B01D164
:10A6D000002014E02578854212D165788D420FD193
:10A6E000094B02EB420103F5727000EB8100A17887
:10A6F0000C2404FB0233C3F8D01383F8C81330BD15
:10A700000334E3E738FD040800000020D3B20F2B28
:10A7100030B520D80024114B1D68A84216D11D79F0
:10A720008D4213D10E4B02EB420103F5727000EB28
:10A7300081000C4901EBC4010C2404FB023391F8A5
:10A740006911C3F8D01383F8C81330BD0134142C39
:10A7500003F10803E0D10020F7E700BF8CFD0408F7
:10A760000000002028FC0408044BD3F8882042F4A1
:10A770007002C3F88820024A9A60704700ED00E03A
:10A780000000000810B5EFF31182102383F3128844
:10A790000D4B0E48D3F8501ED2B20131C3F8501EF3
:10A7A0004FF0E0218C69C0F888420024C0F88C4248
:10A7B000096982F31188064AD3F8541E92F8BC2323
:10A7C0000A44C3F8542E10BDA0190020982A002076
:10A7D0000000002030B5EFF31183102282F31288BD
:10A7E0004FF0E022946911690E4811F4803F1CBFBC
:10A7F0000121C0F88C120C4918BF9469DBB2D1F862
:10A80000505ED0F88C2283F311884FF47A70D1F81F
:10A810005C1E2A4400FB01F31B1BB3FBF1F300FB9E
:10A82000023030BD982A0020A0190020134B30B40C
:10A830005B68C3F30803F3B9EFF31183DBB94FF09F
:10A84000E0250F4B0F48D3F8502EAC69D3F8501EBB
:10A850008A42F8D1D0F888128C42F4D84FF47A703A
:10A86000D3F85C1E00FB01F31B1BB3FBF1F330BC00
:10A8700000FB0230704730BCACE700BF00ED00E0E9
:10A88000A0190020982A00202DE9F04FB34D85B083
:10A8900095F8043D002B61D00027D5F8503EDFF835
:10A8A000D082039305F25449A8F5247695F8343CF8
:10A8B000BB4245DDD9F8183093F80621002A38D17B
:10A8C000D3F8FC20D3F800B1D9F804400092FFF788
:10A8D000ADFF0123824695F8050D009A96F898C3BE
:10A8E0000BF100413939542803FA04F402EB410119
:10A8F00002EB4C03009001D1A5F80CCD994203D98D
:10A90000188820422ED10233981A99424FEA6000EB
:10A9100037D8BCF1000F03D00CF1FF3C86F898C388
:10A92000009B542B05D18D4AB2F8083D0133A2F8A3
:10A93000083D0137082F08F1140809F12009B5D1A5
:10A940000122874B83F8942300221046834BD3F8CF
:10A9500050148A4203F58A73C0F2FC80012005B0CE
:10A96000BDE8F08F5888204201D10433CCE79888A5
:10A97000204201D10633C7E7D88808332042BDD131
:10A98000C2E7ABEB000BBBF1450F28BF4FF0450B07
:10A990004FF0000C03EB4B026146E346CDE9012387
:10A9A000019A9A4200F28C80BCF1110FB8D9DCF107
:10A9B0001502B5D46B4CD4F888349842D6F89C3341
:10A9C00038BFC4F88804AAEB0300002816DB03F59F
:10A9D000F42303F590739A4588BF0AF10503C6F87E
:10A9E0009C33D4F88834052B92BF0023053BDBB29F
:10A9F00086F898334FF0FF33C4F888343AB101FA3F
:10AA000002F20121CCF1140C01FA0CF11143564A67
:10AA1000C1F3C43302EB8303D3F8040201F01F0334
:10AA200002EB8303D3F8043243EA0033C1F344104A
:10AA300002EB8000C1F38421D0F8040202EB810212
:10AA4000D2F8042243EA001343EA022383EA1322E2
:10AA500082EA121202F00F020F2A6FD1B3F5803F83
:10AA60006CD21B09009A542A02BFB5F8062D013298
:10AA7000A5F8062DD6F898220132C6F898224FF68E
:10AA8000FF72934260D0B3F5606F5AD1182195F8E8
:10AA9000782D01FB02523A4492F8252D0D2A50D10F
:10AAA000802288F81E204FF6FF715C20591A2F4B28
:10AAB00018BF012100FB0730039A0CF0FFFF38E7B5
:10AAC000B3F800E00EEA040EDE451DD003F1020EDD
:10AAD000019B734530D9029B3EF802BCAEEB0302EA
:10AAE00003235210013292FBF3F2012AB8BF012274
:10AAF000012391409444013A03FA02F2114304EA1B
:10AB00000B0BCDF808E017E0B3F802E00EEA040EF4
:10AB1000F34502D003F1040EDAE7B3F804E00EEADD
:10AB2000040EF34502D003F1060ED1E703F1080E3F
:10AB3000DB8823409B45CBD1734631E74FF6FF734B
:10AB400090E7A8F80C30AEE7D6F894220132C6F8A8
:10AB50009422A8E703F80E0C0132FAE6A0190020AF
:10AB6000982A00200000002028FC0408382E00202D
:10AB7000282D002070B51D4D95F8812D95F8783D54
:10AB80009A421AD10026194CD5F85034B34219DC38
:10AB9000FFF74CFE0022164BD3F8804603F2846385
:10ABA000944203F108030CDD53F8080C33F8041C3D
:10ABB000C56801322943C160F2E740F087FB0028F5
:10ABC000E0D170BD95F8043D43B1237F012B05D141
:10ABD0000023204684F80431FDF7ECFE2046FDF703
:10ABE000E1FB013604F58A74CEE700BFA01900200E
:10ABF000982A002043682DE9F74F1B690746DB05BB
:10AC000040F15981C423C669C34C03FB064393F842
:10AC1000CC25002A40F04B81C04ADFF810835268EF
:10AC2000D3F85C95C8F8A42694F8802DD9F8005084
:10AC3000002A00F04381D9F81020536943F006033D
:10AC40005361EB6823F48073EB6094F8043D002BB0
:10AC500000F02D81C42200217243B14BD31822444D
:10AC60000093D2F80C365961196459649964D96417
:10AC70001965D9674FF47C51D960012382F8CC352E
:10AC8000D8F8AC361BB9FFF7D1FDC8F8AC064FF0C9
:10AC9000C40A2B680AFB064A43F080032B604FF07E
:10ACA000FF33EB62DAF880350122B3F804B018689C
:10ACB0005946FDF745FDDAF88035002259461868F7
:10ACC000FDF75CFDDAF8803559461868FDF778FD28
:10ACD000DAF8803559461868FDF7A6F9DAF8C8356C
:10ACE000DAF800B6B3F5806F00F00F8100F2FA8059
:10ACF000102B00F00C8100F2ED80012B00F0098197
:10AD0000042B14BF0A220122DFF824C205F1180126
:10AD10001CF802E04FEA1B4B51F80E00B3F5806FB0
:10AD200001908048024492F884A24FF0030202FA94
:10AD30000AF0019A0BFA0AFB22EA000040EA0B0033
:10AD400041F80E004FF0C40000FB0640D0F804B6F6
:10AD500000F0118100F2FC80102B00F00E8100F257
:10AD6000EF80012B00F00B81042B14BF0A2201227B
:10AD70006C481CF802C0024492F884A20C2251F8DC
:10AD80000CE002FA0AF24FEA1B4000FA0AF02EEA3F
:10AD90000202024341F80C20C42202FB0642B3F532
:10ADA000806FD2F8080600F00D8100F2F880102BB9
:10ADB00000F00A8100F2EB80012B00F00781042BE8
:10ADC00014BF0A220122DFF85CA1DFF864C1B3F5E9
:10ADD000806F1CF802C0524492F884A24FF0F00237
:10ADE00051F80CE002FA0AF22EEA020E4FEA104283
:10ADF00002FA0AF24EEA020241F80C204FF0C402B5
:10AE000002FB0642D2F8FC1500F0038100F2EE804E
:10AE1000102B00F0008100F2E180012B00F0FD809A
:10AE2000042B14BF0A2301233F482A6AC05C0A236B
:10AE3000834022EA030301FA00F213432B62C42584
:10AE400005FB0645D5F88035022299881868FDF77C
:10AE500077FCD5F8803599F807201879998800286B
:10AE600000F0E3801868FDF7CDFCC42303FB064423
:10AE70000023D4F80C5600992846C4F8943540F0C5
:10AE800027FDAB6C6FF30F0343F01603AB646B69E4
:10AE900043F001036B61D4F85C351A68B4F860358F
:10AEA000D1680B43D3601D4B5B68C8F8A8364FF4DC
:10AEB00080727B68DA6003B0BDE8F08FD3F80C16BF
:10AEC000B3F860354A6942F006024A61EA6822EA4C
:10AED0000303B9E6402B2DD0B3F5807F14BF0A22BF
:10AEE000042211E7B3F5803F26D008D8B3F5805F80
:10AEF00024D0B3F5804F14BF0A22072204E7B3F52C
:10AF0000801F14BF0A220922FEE60522FCE6022267
:10AF1000FAE60022F8E600BFA0190020001000E0C9
:10AF20002C1F002028FC04083EFC0408982A00205E
:10AF300028FC04080322E7E60822E5E60622E3E609
:10AF4000402B1ED0B3F5807F14BF0A2204220FE7E6
:10AF5000B3F5803F17D008D8B3F5805F15D0B3F5AF
:10AF6000804F14BF0A22072202E7B3F5801F14BFE7
:10AF70000A220922FCE60522FAE60222F8E600226D
:10AF8000F6E60322F4E60822F2E60622F0E6402B7B
:10AF90001ED0B3F5807F14BF0A22042213E7B3F555
:10AFA000803F17D008D8B3F5805F15D0B3F5804F38
:10AFB00014BF0A22072206E7B3F5801F14BF0A2236
:10AFC000092200E70522FEE60222FCE60022FAE65C
:10AFD0000322F8E60822F6E60622F4E6402B1ED00D
:10AFE000B3F5807F14BF0A2304231DE7B3F5803F28
:10AFF00017D008D8B3F5805F15D0B3F5804F14BFD4
:10B000000A23072310E7B3F5801F14BF0A2309237F
:10B010000AE7052308E7022306E7002304E70323E2
:10B0200002E7082300E70623FEE61868FDF70CFC9C
:10B030001BE72DE9F04FDFF8108285B098F8043D4A
:10B040001BB9012005B0BDE8F08FD8F8503E08F2DA
:10B0500054560393FFF7EAFB34460025DFF8F491DA
:10B060000290A9F5247798F8340CA84218DC012343
:10B0700087F894330023C7F8AC369842E1D9B26818
:10B0800096F830101268746F11F0020F116A03F114
:10B09000010314BF41EA840121431162C436ECE785
:10B0A000D7F8AC36029AD31A03D4E26F9A4200F36F
:10B0B000C780C42303FB058393F8CC35002B00F035
:10B0C000A380D4F8B830A1899B6C1FFA83FCA368D5
:10B0D000CCF1160C1A68BCF1070FD36823EA010300
:10B0E000D36040F29180D7F8983201220133C7F83B
:10B0F0009832D4F8C03000931B68019300239B461C
:10B100009A4662452AD20099BAF1140F51F82200EA
:10B110000199A0EB010029DC10F1080E48BF00F1F5
:10B12000170E07284FEA2E1E20DD8BF0010B0121A0
:10B1300062450EF1FF3001FA00F038BF009903FAC2
:10B140000EF338BF51F8221002F1010238BF01910D
:10B15000944543EA0003F244D3D207E0CAF1150E46
:10B16000BEF1000F02DDBBF1000FE0D1BAF1150F07
:10B1700055D1344A03F01F0002EB8000D0F890C292
:10B18000C3F3441002EB8000D0F890E2C3F38420B4
:10B1900002EB8000D0F89002C3F3C43302EB8302C9
:10B1A0000002D2F8903240EA0E1040EA0C0040EA69
:10B1B000033383EA132282EA121202F00F020F2AEB
:10B1C0002DD14FF6FF72C3F30F13934227D0B3F57F
:10B1D000606F21D118201C4A92F8781D00FB0122D3
:10B1E0002A4492F8252D0D2A16D1802289F81E2096
:10B1F0004FF6FF715C20591A144B18BF012100FB58
:10B200000530039A0CF05AFC2046FDF7DFFD0135AE
:10B21000C43409F1140926E7A9F80C30E8E70C4812
:10B22000D0F894320133C0F8943215B14FF6FF7361
:10B23000DEE75822009900F54F7044F067FAF5E711
:10B240000020FFE628FC0408A0190020382E00206A
:10B25000982A0020282D002038B50446FFF7E6FA8A
:10B260000546FFF7E3FA431BA342FAD338BD10B5F6
:10B270000446013C00D210BD4FF47A70FFF7ECFF9A
:10B28000F7E738B50D460121044608460DF090F861
:10B29000002108460DF08CF8013CE4B201200DF0CD
:10B2A0007EF800200DF07BF82846FFF7E0FF012034
:10B2B0000DF075F8013C00200DF071F8E4B228465D
:10B2C000FFF7D5FFFF2CE9D138BD013038B54C1E52
:10B2D000C5B232210520FFF7D4FF4FF4FA70FFF713
:10B2E000C6FFFA212846FFF7CCFF4FF47A70FFF72C
:10B2F000BEFF013CEDD238BD08B50A21FFF7E5FFDE
:10B300000122034BC3F80C2D72B6FEF77FF900BF84
:10B310000070004438B50409013C042C00F00F0211
:10B3200018D80D4D05EB4403B3F8101341FA02F39E
:10B3300013F001000DD001239340013B03EA01000B
:10B3400044F030FC254495F81A330344034800EBDD
:10B35000C30038BD0020FCE728FC04084831002069
:10B3600030B1006800F13D4000F57E00800A704772
:10B370004FF0FF30704728B18088B0FA80F0C0F1FC
:10B380001F0070474FF0FF3070472DE9F0410D4628
:10B390001746064690B3FFF7E3FF194B05F0030885
:10B3A000034493F81F033DF0B5FC3046FFF7E3FF7D
:10B3B0003368B4884246214606461846FDF7C0F970
:10B3C0002146C5F38102FDF7D9F92146C5F30012E4
:10B3D000FCF72AFE2146C5F34112FDF7F1F9B8F159
:10B3E000020F0BD1072E3A46214603D8BDE8F041A3
:10B3F000FDF708BABDE8F041FDF726BABDE8F081D7
:10B4000028FC04080022C0E710B590F87530044607
:10B410007BB990F87200FFF77DFF226E2021136840
:10B4200023F008031360012384F87530BDE8104051
:10B43000E8E710BD70B5046E0546FEF7C9FE236847
:10B440000646980615D5E369990612D5606AEB6A37
:10B45000C0B2002B37D0296B9847236823F4807340
:10B460002360A36823F00103A360A36943F00803EA
:10B47000A361E369DA0744BF01232362E3699B0701
:10B4800044BF02232362E369580744BF04232362B5
:10B49000E369190744BF082323622368FEB15A06F3
:10B4A00002D5E3695B062ED4236818061FD5E3692D
:10B4B00019061CD5AA6A6B6A9A4230D1236823F018
:10B4C0008003236013E0EB696A69D054EB69EA6892
:10B4D0000133B3FBF2F102FB1133EB61BDE723F063
:10B4E000C0032360E3695E0601D54023236223681D
:10B4F000DA0607D5E369DB0604D56B6B03B1984721
:10B500001023236270BD402328462362FFF77CFF8F
:10B510002B6C002BC8D02846FEF7BCFFC4E722687E
:10B52000AB6912F0102F18BF2268AA6A9B5CDBB2CD
:10B53000A362AB6A2A690133B3FBF2F102FB113358
:10B54000AB62D4E770B50025084CA4F2544696F8D7
:10B55000343CAB4201DC012070BD237F1BB1217D57
:10B56000E068FFF74FFF01352034F0E7F41D0020BD
:10B5700010B190F906300BB9202143E7704718232A
:10B580002DE9F0475F4D064603FB0053D3F83049E1
:10B59000002C00F0958093F8407938463DF0BAFBD6
:10B5A000012307F01F027F09013F9340062F0AD8AD
:10B5B000DFE807F00488098E949AA00052490A6EC9
:10B5C00022EA03030B66182303FB065393F834099E
:10B5D000FFF7A0FE06F1010A07465FFA8AFA18B1E2
:10B5E000122380F807A08371182303FB065393F8F6
:10B5F0003509FFF78FFE814618B1132380F807A0A5
:10B600008371182303FB065393F83609FFF782FE74
:10B61000804618B1142380F807A08371182303FB18
:10B6200006552E21484695F83829FFF7AEFE0E2123
:10B63000404695F83929FFF7A8FE95F837292E21BD
:10B640003846FFF7A2FE23684FF0071223F00103EC
:10B65000236000232360A260E36023614FF0FF3387
:10B66000A361E36823F00043E360A36823F4F0736D
:10B67000A360E36813F0805F23680CBF43F480533A
:10B6800023F480532360A36823F0704323F01F0347
:10B6900043F0005343F00703A360E36823F01F5314
:10B6A00023F4C02343F0E863E3604FF40073A36125
:10B6B000236843F480532360E36843F48003E3602A
:10B6C000BDE8F08710494A6E22EA03034B667AE729
:10B6D0000D494A6F22EA03034B6774E70A498A6FF0
:10B6E00022EA03038B676EE70749CA6F22EA030366
:10B6F000CB6768E70449D1F8802022EA0303C1F848
:10B70000803060E7982A0020000C02442DE9F84FB1
:10B7100005464FF001087B4F2C686668BE426ED02C
:10B72000794B9E426DD003F580639E420CBF02238D
:10B730004FF0FF33A888228995F88890824284F8D8
:10B74000248018D0B0F5807F0246A8BF4FF48072E5
:10B75000022AB8BF022292FAA2F1B1FA81F1DFF80F
:10B76000B0C1B2680CEB8101D1F8201322F0704215
:10B770000A43B260208195F80CA0A27A524519D0F4
:10B780001821624A01FB032B9BF83409FFF7C2FD25
:10B790009BF83729BAF1000F35D04E21FFF7F5FDA0
:10B7A000F36823F08073F360F36823F00073F360B1
:10B7B00084F80AA000231846226A966876BB267B86
:10B7C0006EB1B9F1000F33D0012B33D8072831D82F
:10B7D0001421226A01FB03231B7B5BB30026DFF8E5
:10B7E0003491236A9A688ABB236A1B68002B6AD04B
:10B7F000236AD3E900512162C3E900228CE70023C8
:10B8000098E7012396E72E21FFF7BFFDF36843F089
:10B810008073F360F36843F00073C8E7516809B1BF
:10B82000616919B1013330441432C6E78946C6E76D
:10B830004E46D4E72868216A40F063F8A868FDF70F
:10B8400048FF2846BDE8F84FFCF710BC0EB1337B2B
:10B8500013B1A868FDF73DFF226A63681268216A88
:10B860004968206AD0F808C0586800EA090040EA30
:10B870000C005860186840F001001860186840F427
:10B8800000701860BCF1000F20D15A691207FCD576
:10B890009A6942F010029A611A6822F001021A6055
:10B8A000236A1B7B13B1A868FDF70EFF236A1B698F
:10B8B00013B3236AD5F894001B699847012890D0E8
:10B8C000022819D100232362BDE8F88F5869800748
:10B8D000FCD57AB112F8010B83F820005869C00733
:10B8E000FCD593F83000C0B209B101F8010B0CF19E
:10B8F000FF3CC7E7FF20EFE7266A236A1433236281
:10B900006FE700BF0030014000380040982A002057
:10B9100028FC04080000FFFF70B5C569002D50D059
:10B920002C68236A1B7B13B1A868FDF7CDFE226942
:10B930006069516863684A6942F006024A61426878
:10B94000516941F0060151614FF4E061D1609A689C
:10B9500022F400429A609A6822F480429A609A69BE
:10B9600042F010029A611A6822F001021A60236AFA
:10B970001E7B236AF6B21B6943B1236AD5F8940093
:10B980001B69984701280DD0022813D0236ADA6971
:10B99000C2B95869A0B199692162C3E90522BDE81D
:10B9A0007040B3E6236A2868143B23623FF0C8FF67
:10B9B000ECE72362236ADA691433002AF9D1E5E758
:10B9C000206270BD1433236294F8243033B1216AAD
:10B9D00028683FF096FF002384F8243016B1A86849
:10B9E000FDF777FE2846FCF741FB2868BDE870406C
:10B9F0003FF0A6BF2C232DE9F047DFF8449306461D
:10BA000003FB00939D6D002D00F08B811C6E24B113
:10BA100094F90630002B40F084812C2303FB06931D
:10BA20005F6E27B197F90630002B40F07A81731CC6
:10BA3000DBB214B11522E371A27117B11622FB71AA
:10BA4000BA7195F828003DF065F92046FDF73CFEF7
:10BA50003846FDF739FE11212046FFF7D3FC1121AE
:10BA60003846FFF7CFFC4FF0090820463DF0BCF9FF
:10BA70002046FDF72EFE0520FFF7EEFB2046FDF7E2
:10BA800023FE0520FFF7E8FBB8F10108EDD12046C1
:10BA90003DF0AAF92046FDF71CFE0520FFF7DCFB70
:10BAA0003846FDF716FE0520FFF7D6FB2046FDF7CA
:10BAB0000BFE0520FFF7D0FB3846FDF705FE0520FD
:10BAC000FFF7CAFB2046FDF7EDFD10B13846FDF744
:10BAD000E9FD2C2303FB069999F86A302046002BD8
:10BAE0000CBF1E213E2199F86820FFF74EFC99F803
:10BAF0006A3099F86920002B0CBF1E213E21384680
:10BB0000FFF743FC7642884806F02C0630440026B6
:10BB1000D9F8583014225C68002143F00BFD2368EB
:10BB200023F001032360236823F0010323602660D0
:10BB30006660A660E660266138F0ACFC07EE900A0D
:10BB40009FED7A7AF8EE677AB9F86C90C7EE275ACB
:10BB500007EE909A9FED767AF8EEE77A9FED755AA8
:10BB6000C7EE274AB0EE007ADFED737AB0EE084AEE
:10BB7000E5EE877AA5EE875A25EE844A74EEE72A29
:10BB8000324640F2145CF7EE003A37EE856AB9F5BA
:10BB9000C87FD5BF4FF4967178216423322302F118
:10BBA000010707EE907A0B44F8EEE76A07EE903A49
:10BBB00066EEA56AB8EEE77AA1F13201C7EE267A01
:10BBC00007EE101A77EEE37AB8EEC77AFCEEE77A62
:10BBD00037EE447A17EE903AC7EE267AD4BF4FF488
:10BBE000167E4FF4827EFCEEE77AD4BF60464FF4B7
:10BBF000FA7017EE906A07EE90EA00EB0E01B8EECD
:10BC0000E73A07EE901A23EE243AF8EEE77A83EE4D
:10BC1000277A37EE453AC3EE267A77EEE37A32EEAC
:10BC2000C77AFCEEE77A17EE900AC7EE267A77EE2F
:10BC3000E37AFCEEE77A17EE901A01F1020E0EEBB2
:10BC4000000A07EE90AAB0EE467AF8EE677AA6EE02
:10BC5000A77AF4EEC74AF1EE10FA5CDC43EA060E6E
:10BC60005FFA8EFEBEF10F0F57D840EA010E1FFAA1
:10BC70008EFEBEF1FF0F50D81B05360403F07F6324
:10BC800006F47F06334343EA02732C4A89B202EA80
:10BC90000022134343EA010800222368114623F0DF
:10BCA00001032360236823F44013236028F07063AA
:10BCB0002361236823F480532360236823F4706393
:10BCC0002360A3686FF30A03A360636823F400434F
:10BCD0006360236843F00103236095F92A40FDF770
:10BCE00005FDFDF719FD01462046FCF7ABF920469E
:10BCF000FDF770FF002295F929401146FDF7F6FC8B
:10BD0000FDF70AFD01462046FCF79CF92046BDE8F8
:10BD1000F047FDF75FBF013091E70F2FBCD03A46E7
:10BD200035E7BDE8F08700BF082B0020286B6E4E7A
:10BD300000247449000016430000704200FFFF0019
:10BD4000982A002038B590F875300446012B16D19A
:10BD500090F87200FFF7DEFA054680B1FDF7A2FC0D
:10BD600070B1002394F8732084F8753002212846BE
:10BD7000FFF70BFB226E136843F0080313600120EA
:10BD800038BDF8B500250E4CA4F2545797F8343C52
:10BD9000AB4201DC0120F8BD082D04F1C4040BD036
:10BDA00054F8BC6C01353079FFF7B4FAF27914F825
:10BDB000901CFFF7EAFAE9E700239B68FFDE00BF6B
:10BDC000F41E002008B570B1FFF7D5FA012313FA6D
:10BDD00000F008D0044BD3F8802022EA0002C3F818
:10BDE0008020D860186108BD002002442DE9F84386
:10BDF0008046FFF7C0FA041E8946154619469DF88D
:10BE0000206073DB3A4B4046234493F84473394B2C
:10BE100003EB8403C3F8C49CFFF7D4FF4046FFF74D
:10BE2000F1FA4046FFF79CFA334A04F00F031A4434
:10BE3000D2E84F3F23F00F030343DBB2C2E8413F98
:10BE40000029F5D1012016F0FD0F2C4A00FA04F06C
:10BE500008D0C44352E8003F234042E800310029A3
:10BE6000F8D106E052E8003F034342E800310029E0
:10BE7000F8D1013E012E214B0AD9C4431A1D52E8C4
:10BE8000002F22401E1D46E800210029F6D108E0BF
:10BE90001A1D52E8002F02431C1D44E8002100290E
:10BEA000F6D103F1800252E8002F024303F180042F
:10BEB00044E800210029F4D1114B3B4493F8C029F8
:10BEC000AA4213DD83F8C0590E4BA911DC57C5F304
:10BED0000112FDF70BFCFDF71FFC01462046FDF7A4
:10BEE000A7FB2046BDE8F843FDF708BCBDE8F88392
:10BEF00028FC0408A019002060200244002002440D
:10BF0000982A0020FA7F050808B550B1FFF733FAE8
:10BF1000012383401FBF0349D1F880201343C1F898
:10BF2000803008BD002002442DE9F04FDFF804A264
:10BF30000027D14691B04FF000087A4D28E0022B3F
:10BF400033D1082830E0012440E09168029308686A
:10BF5000019200913FF006FDDDE900128642029B4E
:10BF600003D16879497988420BD0013302F58A728E
:10BF70002EE00134102C03F10C032FD14FF0FF32CF
:10BF800030E008F10108B8F1080F05F11C053DD0BB
:10BF9000D5F800B058463FF0E5FC634B064693F8F1
:10BFA000E239012BCBD10128EBD1002421463046C8
:10BFB0000DF01AFB0DF05EFB90F900300BB1542B25
:10BFC000C1D10434A4B2102CF0D100245246002375
:10BFD000BB42BAD1002CD4D1A968544B5A689142C3
:10BFE000C7D162B269795846FEF790FB40680CF001
:10BFF000BBF901380B28C4D82C234D4A03FB002081
:10C0000090F92430002BBCD1C9F808500137042F17
:10C0100009F58A798FD10023DFF81C810193454B04
:10C02000019A93F8343C93421FDDD8F80C3000930A
:10C030003D4B93F8F6A998F810300593009BA3B1F7
:10C040001846FFF798F9029018463A4BFFF788F91F
:10C050004FF48A71D3F850640023B34208DB042EF6
:10C0600053D10323304A82F8F73911B0BDE8F08F7D
:10C0700001FB03F72F4AD259904244D12D4B1F4464
:10C0800003220126029B019CC8F80430009B013466
:10C09000C8F80C30059BC8F8187088F81030009B61
:10C0A0009A71DC71029B396D5B009A401143BA6D45
:10C0B00006FA03F339651F491A43029B91F8049D60
:10C0C00006FA03F3BA659DB2FA6DB9F1000F00F0FC
:10C0D0000E82134331460098FB65FDF7ECFA3246B9
:10C0E0002946D7F8B400FCF774F93846FCF762FC2F
:10C0F0000123082C88F81C3088F81D30019408F1C1
:10C1000020088CD1B1E70133A7E74FF48A7373435A
:10C11000084A1A44D2F80890B9F1000F0ED1022350
:10C12000A0E700BF7CFF0408982A0020C803002075
:10C1300000000020A0190020F41D0020C849451C63
:10C14000C8505423EDB282F8103182F81151002208
:10C15000731CC1F85034D9F8000099F805B0D9F82B
:10C160000840C0494B689C4240F09D8152B25946FC
:10C17000FEF7CCFA4368BA4C04934FF48A737343C6
:10C180001C440393049B636183680498A3610CF0CF
:10C19000EBF82A4654210CF0D2F800283FF465AFA2
:10C1A0003321009BB04A1B68C4F8B8106360039B3E
:10C1B00027469B1053435943AC4A02EB8101C4F814
:10C1C000B4108C214B4302F54C7202EB4303C4F8CC
:10C1D0000011C4F8FC30D9F800502846FCF7D2FB17
:10C1E000BAF1060F00F06881A14BA24ABAF1070F1D
:10C1F00018BF13464FF48A7C994AB0FBF3F10CFB4D
:10C2000006224FF01E0C0CFB03F34FF0180CB3FB8F
:10C21000FCF3B0FBF3F00023013989B20138A2F836
:10C220007410A2F8BC00C4E919312366E366AB625E
:10C23000E9622B68BBF1080F23F070032B602B68B9
:10C2400023F440732B60236F2B636B6943F001036E
:10C250006B612B6843F080032B6000F03B8100F2A0
:10C260002D81BBF1000F00F03081BBF1040F00F015
:10C270002F81002309930C930F93602307934FF4AE
:10C2800080730E9301234FF0020A08930A234FF4A0
:10C290008A72CDE90A3A2B68284623F001032B6005
:10C2A0006F4B02FB063B07AADBF80C10FBF784FF81
:10C2B000DBF80C10FBF73DFF99F8040088B1FFF79D
:10C2C00029F88346514699F80720FFF75EF8BBF13D
:10C2D000000F02D05423ABF806306B6C43F40043DC
:10C2E0006B642B68049843F001032B600CF03CF85E
:10C2F0008246FEF7BDF94FF48A7199F80520DFF800
:10C3000080C10C2A97BF5C4B002203EB4203B3F8B9
:10C310003424534B01FB063300211A820CF2846350
:10C3200053F83100002840F0D8800CEBC100C0F871
:10C330008456DCF880060130CCF8800603EBC1039C
:10C34000998850460A439A804C4923469022FEF72A
:10C3500092F94FF48A73DFF808B14FF0010903FB3B
:10C3600006B675693C226B69002143F480736B61EA
:10C370006B6904F1780043F4A0636B6143F0DAF871
:10C380004FF44002B369C4E92A99C4F89830C4F85C
:10C390009C20D6F8B82004939200C4F89420D6F8D4
:10C3A00004A0039B0AF11802E2674FF40032C4F8BC
:10C3B0009020D6F8B42003F17801A2670222C4F8D5
:10C3C0008C2008222846C4F8842059443FF080FA83
:10C3D0006A69002142F4A0626A616A6904F1C000DE
:10C3E00022622A6C62626A6CA262AA6CE262EA6CE5
:10C3F00022632A6D62633C2243F09CF8049BC4E9EB
:10C400003C99C4F8E0304FF40003C4F8E430D6F8A7
:10C410000031C4F8D49003FA09F3C4F8DC300AF10F
:10C420001003C4F8C030D6F8FC302846C4F8C43035
:10C430004FF48033C4F8D8304FF40023C4F8D03020
:10C44000039B03F1C00159443FF042FA6B6943F486
:10C45000A0636B616B69A3632B6CE36312E000BFA5
:10C46000A0190020C80300208D123FA390340020A3
:10C4700040771B00D0DD060028FC04080F8A000866
:10C48000982A00206B6C2364AB6C6364EB6CA36430
:10C490002B6DE3646B6943F480736B616B6943F4E8
:10C4A000A0636B61ECE50132102A01F10C017FF40D
:10C4B00059AE4FF0FF325AE6124B9BE6BBF10C0F20
:10C4C0007FF4D7AE4FF4805300E00123D360D0E671
:10C4D0001023FBE74FF48073F8E785423FF42EAF5B
:10C4E000013104297FF41CAF00239B88FFDE029BEF
:10C4F000494610339E4016430098FE65FDF7DBF871
:10C500004A46EDE5A0BB0D000346002030B5174AB2
:10C51000174DD17939B1517905EB4101B1F880401E
:10C52000A4B2A1F8A0400130042802F10C02F0D11D
:10C530000C22104902FB031292F8970048B1181F11
:10C54000012807D8052B14BFB1F8D800B1F8DA00DC
:10C5500080B230BD92F89520052A05D8044B03EB34
:10C560004203B3F8A000F3E70020F2E7203C0020EC
:10C57000403A0120903B0020104A02231360104BE8
:10C580001B6853600F4B1B6893600F4B1B68D36095
:10C590000E4B1B6813611EF0040F0CBFEFF30880F5
:10C5A000EFF309808369536143699361D061BFF3FD
:10C5B0004F8FBFF36F8F0DF0A5B9000044330120FA
:10C5C00028ED00E02CED00E038ED00E034ED00E077
:10C5D000104A03231360104B1B6853600F4B1B68FA
:10C5E00093600F4B1B68D3600E4B1B6813611EF0EA
:10C5F000040F0CBFEFF30880EFF3098083695361E8
:10C6000043699361D061BFF34F8FBFF36F8F0DF01C
:10C6100079B900004433012028ED00E02CED00E062
:10C6200038ED00E034ED00E0104A04231360104BB5
:10C630001B6853600F4B1B6893600F4B1B68D360E4
:10C640000E4B1B6813611EF0040F0CBFEFF3088044
:10C65000EFF309808369536143699361D061BFF34C
:10C660004F8FBFF36F8F0DF04DB9000044330120A1
:10C6700028ED00E02CED00E038ED00E034ED00E0C6
:10C68000104A01231360104B1B6853600F4B1B684B
:10C6900093600F4B1B68D3600E4B1B6813611EF039
:10C6A000040F0CBFEFF30880EFF309808369536137
:10C6B00043699361D061BFF34F8FBFF36F8F0DF06C
:10C6C00021B900004433012028ED00E02CED00E00A
:10C6D00038ED00E034ED00E010B5082204460220F9
:10C6E0000449A14201D9013A00D110BD430098B2DA
:10C6F0004908F6E780F0FA02CB0773B504461CD46C
:10C7000090F83450012D06D10D4B066BD3F8DC00A8
:10C71000FFF7E2FFB080E368B3F1807F0DD901231A
:10C7200084F82830B723012D8DF8043005D12B462D
:10C730000022206B01A932F097FC02B070BD00BF4F
:10C74000903B00202DE9F0411E46036B94B0054656
:10C7500018680F4690463CF017FF2248002400F16D
:10C76000200301930223029301231F4A00900492A5
:10C7700000F14002059295F828204130111D0791E3
:10C7800039461A4F8DF80C308DF834308DF848301A
:10C79000CDE90944CDE90E44CDE9104406948DF865
:10C7A00020401394CDE90B86FBF704FFD7F8DC009B
:10C7B000FFF792FF2C6B95F82930A08083B1694672
:10C7C000204632F025FC2C6B20683CF0DDFED7F8CB
:10C7D000E000FFF781FFA080304614B0BDE8F08193
:10C7E00005A9EDE700350120E9850008903B002010
:10C7F00038B5CB0704460AD4FCF78EFD94F83430E4
:10C80000012B04D1A069FFF767FF256BA88038BD15
:10C810002DE9F74F0026624C04F1F0092378022B32
:10C8200040F0B28099F903505FFA86FB6A1C19BF89
:10C83000EDB2AA464FF00F0A00250BF10107FBB23B
:10C840000093AA4502D24FF0000827E05946002085
:10C850006AB2FDF735FF074600285ED040680BF04E
:10C8600083FD1421009A80460BF069FD002854D006
:10C870002C2108F1FF3251434A4B58182061043BE8
:10C880005042194400F00700BB6802F0070258BF8D
:10C89000424240460A730B61FDF7EAFE99F90450E3
:10C8A0005FFA86FB6B1C19BFEDB2AA464FF00F0A68
:10C8B00000250BF10103DBB20093AA4529D35946A9
:10C8C00001206AB2FDF7FCFE034648B340680193BD
:10C8D0000BF04AFD1321009A07460BF030FDF8B12A
:10C8E0002C217A1E51432F4B5818043B1944019BAD
:10C8F0006061504200F007009B6802F0070258BFD9
:10C90000424238460A730B61FDF7B2FEB8F1000FE0
:10C9100009D10023C4E9043336E00135EDB290E7D4
:10C920000135EDB2C9E7002FF3D0636958683FF0D5
:10C930000EF8236958683FF00AF8A3693C221846AC
:10C940000021656842F0F6FD22696369D2680262DF
:10C950000822C26005F1200242606BB1E3693C220B
:10C960000021184642F0E6FD62693035D268056064
:10C9700002624FF400220261002338461A460A4937
:10C98000FDF779FE012323730136062E04F12804F6
:10C9900009F105097FF442AF03B0BDE8F08F00BF95
:10C9A000743C00200400002019B90008072810B5C5
:10C9B00009D81822044B02FB0033D3F8F44114B118
:10C9C00042F004F8206010BD903B00200348D0F8EE
:10C9D000B43200F52D705B68184700BF903B002013
:10C9E0001346002230B4064CC4F8EC22D4F8B4222A
:10C9F000956A0A46AC46014604F52D7030BC604786
:10CA0000903B00200548D0F8B43223B1DB6A13B163
:10CA100000F52D7018470248704700BF903B00207A
:10CA20007800050830B500220624064B04FB02F10D
:10CA3000CD5C854204D00132062AF7D1002030BDFA
:10CA40005818FCE7843E002070B506460D46144693
:10CA5000FFF7E8FF60B9084BD3F8180305280AD0A0
:10CA6000411CC3F81813062103F53D7301FB003088
:10CA700006704580848070BD903B002070B50346F1
:10CA800000240C261A4DE2B206FB0252D2F87004C2
:10CA900020B9C3E902009880188270BD884204F171
:10CAA0000104F0D1B2F87414124C13486143C0F879
:10CAB000E010B2F876146143C0F8DC100020B2F840
:10CAC0007814B2F87A2499801A82120251439A603B
:10CAD000012298744FF4807083F8292093F8342051
:10CAE000D880012AD96001D1044A1A600120D4E714
:10CAF00028FC040840420F00903B002084020508F7
:10CB000070B5154E0546D6F88C340C468B428CB069
:10CB100020D0C2238DF8043001AB022202930023FF
:10CB2000CDE9033201220068CDE90633CDE90833AF
:10CB30008DF814208DF828200B938DF805103CF00B
:10CB400023FD284602A932F063FA28683CF01CFD58
:10CB5000C6F88C440CB070BD00000020F8B5064645
:10CB600000250C4C0C4FD7F81C33AB4201DC0120E4
:10CB70000FE094F8293013B901354034F3E7306BF6
:10CB80002946FFF7BDFF236820465B6898470028C9
:10CB9000F2D1F8BDDC250020903B0020F8B5064618
:10CBA00000240A4D0A4FD7F81C33A34201DC0120B0
:10CBB000F8BD2146306BFFF7A3FF2B6828469B6822
:10CBC000984740350028F3D00134ECE7DC250020FD
:10CBD000903B00202DE9F04106460F4600240A4D07
:10CBE000DFF82880D8F81C33A34201DCBDE8F081CF
:10CBF0002146306BFFF784FF2B68284639461B68B7
:10CC0000984701344035EDE7DC250020903B0020BB
:10CC100070B50E4E0D46D6F82043006BB1FBF4F410
:10CC20002146FFF76DFFD6F82023094BB5FBF2F143
:10CC300003F63C4003EB8413D3F83C3C02FB115158
:10CC400000EB8410DB68BDE870401847903B002083
:10CC5000A0190020F8B506460024094D094FD7F861
:10CC60001C33A34200DCF8BD2146306BFFF748FFC0
:10CC70002B6828461B69984701344035EFE700BF11
:10CC8000DC250020903B002070B50D460E4B16466B
:10CC9000D3F820130D4CB5FBF1F1006BC4F8381C30
:10CCA000FFF72EFFD4F8383C04F63C4004EB831425
:10CCB000D4F83C2C2946546900EB831032462346B5
:10CCC000BDE87040184700BF903B0020A01900202D
:10CCD00013B50446CDE90032049AFFF7D5FF0123CE
:10CCE0006A4601A92046FBF791FC2046FBF7A0FC11
:10CCF00002B010BD2DE9F74F0C4693461D461E4667
:10CD0000DFF868A001901EB9284603B0BDE8F08F97
:10CD1000DAF82013019BB4FBF1F701FB174806EB8F
:10CD20000800884294BFC8EB0009C8EB01093946E6
:10CD3000186BFFF7E5FE0B4B0B4803EB8711D1F89F
:10CD40003C1C00EB87108B6A5A469C4641464B467A
:10CD50006746B8470028D8D04C44CB44A6EB090618
:10CD6000D1E700BFA0190020DC250020903B002067
:10CD700070B5002204461426254DD3B206FB03539A
:10CD8000D3F88C0620B9C4E90200A080208270BDCF
:10CD9000884202F10102F0D11E4A93F89F16B3F8BF
:10CDA000925682F8441E93F89C16B3F8940682F8C3
:10CDB000451E93F89D16184AA58082F82413B3F8EF
:10CDC0009026164920824A43B3F89616A261D3F8FA
:10CDD000982693F89E36002A84F820304FF00103FD
:10CDE000A37401FB00F3A36005FB03F3E180E261A0
:10CDF0006FEA0201E36009DA03200A44FFF724FE28
:10CE00000120074B84F829002360C0E72944F3E799
:10CE100028FC0408A0190020903B002040420F008D
:10CE20000403050838B5194CD4F828130888D8B17C
:10CE3000D4F81853002D17DDD4F82C33897B5A8889
:10CE4000D9B9012D19D19B8801339B1A834214D182
:10CE5000D4F8B432C4F8EC121B6904F52D7098476D
:10CE600084F8305384F831530022094B83F8C12CE5
:10CE700083F8C02CC3F8BC2C38BD002384F83033B1
:10CE80000123A4F8322384F83133EDE7903B0020EE
:10CE9000A019002008B5074BD3F8340320B193F84C
:10CEA000313323B9FFF792FD00F0010008BD0020E7
:10CEB000FAE700BF903B0020064B93F8C10C93F8B3
:10CEC000C02C93F8C03C904236BFC3F18003C01A17
:10CED000C0187047A01900201FB5694602A8FBF7CB
:10CEE000EFFB054B0098D3F8BC3C1844019B184459
:10CEF00005B05DF804FB00BFA019002030B5154C4B
:10CF0000054694F8C03C94F8C12C85B09A421ED0D6
:10CF1000114B1B7803F0FF00BBB1684602A9FBF779
:10CF2000CFFB024650B1DDE9023115B90B443F2B6E
:10CF300004D90023684602A93EF044FC94F8C10CD1
:10CF400094F8C03CC31A5842584105B030BD012086
:10CF5000FBE700BFA0190020000000201FB50C4B0C
:10CF600093F8C02C93F8C13C93420DD0684602A9B7
:10CF7000FBF7A6FB024618B1012368463EF022FCEF
:10CF8000FFF724FD0028FBD005B05DF804FB00BFCF
:10CF9000A019002070B5274C94F83153012D48D1C9
:10CFA00094F83063FEB1FFF711FD58B10021C4F8C9
:10CFB000E01284F8301384F831132846BDE870403D
:10CFC0000BF0F6B9D4F8E0329BB3FDF703FC4FF455
:10CFD0007A73B0FBF3F0D4F8E032C01A002828DBF3
:10CFE0000B20FEF789F9FFF7F1FC10B3D4F82C23DE
:10CFF000B4F8323392889A4217D3D4F8282304F530
:10D000002D705168D4F8B4225943D268C4F8EC6248
:10D0100090473EF04DFCB4F8323328460133A4F873
:10D020003233BDE870400BF0BAB9314684F8316351
:10D03000C3E770BD903B002010B50C4A0C4C92F831
:10D04000C11C4B1CDBB282F8C13C1B0648BF00234D
:10D05000605448BF82F8C13CFFF72EFF3F2803D938
:10D06000BDE81040002049E710BD00BFA019002016
:10D07000403A01207FB5154604464618B44210D107
:10D08000694602A8FBF71CFB024640B1DDE900300F
:10D0900003443F2B03D92B4602A83EF093FB04B078
:10D0A00070BD14F8010BFFF7C7FFE7E770B5154631
:10D0B00004460E46074B8218D3F834339A4288BF91
:10D0C0001D1AFFF74BFF2A4631462046BDE8704047
:10D0D00086E400BF903B002038B5124D124CD5F8C5
:10D0E00028339B7B012B13D1D5F8B4325B6A23B173
:10D0F00005F52D7098473EF0DBFBD5F828335A88AC
:10D10000D4F8BC3C013B134452421340C4F8BC3C2D
:10D11000D4F8BC3C03F2FF736FF30A03C4F8BC3CC1
:10D1200038BD00BF903B0020A0190020074908B57A
:10D13000D1F88C0340B1FCF7B5FA91F8893313B1FB
:10D1400080F00100C0B208BD0120FCE7903B002048
:10D150000020704700231B6AFFDE044B1B78032B63
:10D1600014BF4FF480708020704700BF58870020A4
:10D1700008B50B4A68B1816811B10723937008BDE7
:10D18000FFF7EBFF0423C2E90100C2E903111175A7
:10D19000F4E7012302F5805181F8E4375370EEE79C
:10D1A000588700200378022B0D4B09D1D3F834287F
:10D1B000D3F83038406803EB420303EB502070474C
:10D1C000D3F84818426800690A40D3F8401802387A
:10D1D0004843D3F83C3800EB52201844704700BF56
:10D1E00058970020064B1B78022B0BBF030AC0F395
:10D1F000D413C0B200F07F000B601060704700BF16
:10D200005887002090F91A30591C0AD003F5B172E2
:10D210000E4B03EB0213DA7922F00102DA71FF23DD
:10D22000837690F91B305A1C0FD0084903F5B1736F
:10D2300001EB0311CB79C3F34502013A22EAE27212
:10D2400062F34603CB71FF23C376704758870020F3
:10D2500008B5FFF782FF034BD3F84038584340022C
:10D2600008BD00BF589700200378022B09D10E4B50
:10D27000D3F850284368B3EB422F2CBF0120002085
:10D280007047006970B1094B1B78032B16BF4FF62E
:10D29000F773074B80B2984294BF0020012000F042
:10D2A000010070470120FAE75897002058870020B6
:10D2B000F7FFFF0F4368F7B5C3F308020A44B2F55E
:10D2C000007F04460D4604D22B446360012003B066
:10D2D000F0BDFFF797FF0378022B01D16368F3E7F6
:10D2E000154BD3F84028B5EB422F4FEA422706DC16
:10D2F000D3F8483846681E407342AB4201DD002037
:10D30000E5E7AB19BB4210D3016901AA007E3EF0EC
:10D3100039FA0128F3D123696361019B23616368B2
:10D320003B449B1BEF1B6360BD192046FFF79CFF2E
:10D330000028CBD1D2E700BF5897002070B5044633
:10D340000E461546FFF7B6FF20B10DB12046A8479F
:10D35000012070BD94F82800022320B9C4E90B56BF
:10D3600084F82830F5E71846F3E738B5174D01463D
:10D3700005F5805494F8100830BB49B191F8283075
:10D380002BB9442204F5FD6042F0C0F9012038BDFC
:10D3900044220F4842F0CEF84FF6FF73A4F802384B
:10D3A000032384F800382B780948022B18BF032385
:10D3B00084F8E837D4F84C38C4F80C38102384F8D3
:10D3C00001383BF01FFDE1E70020E0E7588700202F
:10D3D000409F0020044A012392F8E41709B982F81B
:10D3E000E437024A5370704758970020588700204E
:10D3F0002DE9F74F12F002098A461546019304D031
:10D4000018B9FFF7E7FF02200EE0614AD2F838684A
:10D410006EB1D2F84048D2F83C1804FB061188429D
:10D4200005D3FFF7D7FF002003B0BDE8F08F4FF022
:10D43000FF3100248C468E468846564EDFF858B1A0
:10D440003368B77B984221D1002F5DD0D2F8C8163F
:10D4500051480131C2F8C81604F5B1721201815069
:10D4600021464D4C01F5B17604EB06129279042A5F
:10D47000C7D801A050F822F011D5000845D5000802
:10D4800027D4000845D5000859D50008002F37D00B
:10D49000012F10D104F5B1770BEB0717FF79FB07CC
:10D4A00009D417F07E0F06D1FF092BD1B768474585
:10D4B0003CBFA446B84601340B2C06F11006BFD180
:10D4C000002906DABEF1000F20DABCF1000FAADB5A
:10D4D000614641F21867304C04EB0116F051D2F866
:10D4E000C8060130C2F8C80641F21C62B05001F50E
:10D4F000B1721601A051002004EB02125060B0E797
:10D500002146D8E7A646D6E72146E2E77146E0E79E
:10D5100015F0010202D000239B68FFDE04EB061029
:10D5200090F807C0019BEF1067F3C71C032B80F82E
:10D5300007C02BD94FF6FF72934228BF134604EB66
:10D5400006129380B9F1000F06D004EB011000F52C
:10D55000B0501830FBF7E0F86A0741BF04EB061241
:10D56000D37943F00103D371EB0608D504EB06141D
:10D57000E379C3F34502013262F34603E371074BDB
:10D58000012003EB4123CAF800304DE71346D6E7EC
:10D5900058970020709D0020588700207087002039
:10D5A0007FB50F4D01AA0C4602A9FFF71BFE05F53A
:10D5B0008053D3F83008029E0023032203A930448D
:10D5C000FFF716FF012808D12978039B019A022949
:10D5D0000CBF23F8124043F8224004B070BD00BFD6
:10D5E000588700202DE9F04F1646D1F8009085B0FD
:10D5F00001AA07460D46484602A9FFF7F3FD374A40
:10D600000299D2F83038A2F5805A01EB0308019B49
:10D61000013B9C19FFF7A1FDA4EB09040444B4FBF2
:10D62000F0F408EB04092B68A9EB0801B34203D31B
:10D63000012005B0BDE8F08FDDF804B00BEB060467
:10D64000E41AFFF78AFD844228BF0446BBF1000FAD
:10D650001AD1A0428CBF0B220A220B46404603A9D6
:10D66000FFF7C6FE0128E4D19AF800102B680229C2
:10D670005846039A03F101030CD0A0420CD242F8A1
:10D68000203001300133F8E70B22E6E722F81030B2
:10D6900001300133A042F9D32B68012FA3EB0B0318
:10D6A00023442B6014D1B34212D102290BBF4FF691
:10D6B000FF734FF0FF3104F1004404F180430BBFCE
:10D6C00004F1FF3403F1FF3322F8143042F8231041
:10D6D000002308F101080193A5E700BF5897002037
:10D6E0002DE9F04F85B005460C46FFF736FD17468D
:10D6F000814601AA206802A9FFF774FD6B1E012B69
:10D7000066D9019B4BB94E46DFF8C880012D8CBF0E
:10D7100000250125A8F5805A1BE0FFF75BFE0220DB
:10D720002BE0D8F8A837C3B1D8F8C417914214D168
:10D73000D8F84028013B500203EB4223B3FBF0F33F
:10D740000B44B3FBF6F206FB12320AB133449B1AC8
:10D7500023602268BA42E4D32BE0DDF808B0D8F8A1
:10D7600030080023092203A95844FFF741FE01288D
:10D7700006D00228D3D00028EBD105B0BDE8F08F49
:10D780009AF80010019A022907D00329C7D1039BF8
:10D7900053F8223023F0704302E0039B33F8123039
:10D7A000B3FA83F35B09AB42D4F800C004D16745F8
:10D7B000E3D803202760E0E732440CEB06039145F1
:10D7C0002360E0D80BF10103029300230193C0E72B
:10D7D000012699E75897002037B50446C0690D46E1
:10D7E00010B9012003B030BD0023032201A9FFF7C7
:10D7F000FFFD0128F6D1B4F92030002B17DB019A88
:10D80000012D4FEA431102EB431316D0022D12D023
:10D81000E268DA612278032A04D100221A775A7763
:10D820009A77DA77626A110C99825A83D9E7FFF7FF
:10D83000D1FD0220D6E7E5205054A268E9E738B5CB
:10D84000044694F83430052B2FD8DFE803F007277F
:10D85000353C444D022084F83400F2E7294D012084
:10D86000D5F8382804F130010232FFF739FF0128DA
:10D8700005D00238C0B2012817D80520EBE7D5F84B
:10D880004018E268236B02EB4122C5F84438E2609D
:10D89000E26A2361002ADED16362DCE74FF0FF31E8
:10D8A000206BFFF77DFE012801D0002038BDE36A20
:10D8B000002BCFD10320CEE7D4E90B01FFF770FE98
:10D8C0000128F7D0F1E700212046FFF785FF012866
:10D8D000EBD10420BFE794F828300120082B04BFC7
:10D8E000002384F82830E1E794F828300122082B3F
:10D8F00004BF002384F82830024B022083F8E52778
:10D90000D4E700BF589700202DE9F341044694F86E
:10D910003830032B0ED8DFE803F00611757E0320A4
:10D9200084F83800F3E72046FFF789FF0128F7D095
:10D930000228F4D0002002B0BDE8F08123786568A9
:10D94000022B18BF384B204618BFD3F84838DFF8F1
